{
  "_format": "hh-sol-artifact-1",
  "contractName": "Voting",
  "sourceName": "contracts/Voting.sol",
  "abi": [
    {
      "inputs": [
        {
          "internalType": "uint256",
          "name": "_maxVoters",
          "type": "uint256"
        }
      ],
      "stateMutability": "nonpayable",
      "type": "constructor"
    },
    {
      "inputs": [],
      "name": "MAX_CANDIDATES",
      "outputs": [
        {
          "internalType": "uint256",
          "name": "",
          "type": "uint256"
        }
      ],
      "stateMutability": "view",
      "type": "function"
    },
    {
      "inputs": [
        {
          "internalType": "string",
          "name": "candidateName",
          "type": "string"
        }
      ],
      "name": "addCandidate",
      "outputs": [],
      "stateMutability": "nonpayable",
      "type": "function"
    },
    {
      "inputs": [],
      "name": "canVote",
      "outputs": [
        {
          "internalType": "bool",
          "name": "",
          "type": "bool"
        }
      ],
      "stateMutability": "view",
      "type": "function"
    },
    {
      "inputs": [
        {
          "internalType": "string",
          "name": "",
          "type": "string"
        }
      ],
      "name": "candidateExists",
      "outputs": [
        {
          "internalType": "bool",
          "name": "",
          "type": "bool"
        }
      ],
      "stateMutability": "view",
      "type": "function"
    },
    {
      "inputs": [
        {
          "internalType": "uint256",
          "name": "",
          "type": "uint256"
        }
      ],
      "name": "candidates",
      "outputs": [
        {
          "internalType": "string",
          "name": "",
          "type": "string"
        }
      ],
      "stateMutability": "view",
      "type": "function"
    },
    {
      "inputs": [
        {
          "internalType": "uint256",
          "name": "",
          "type": "uint256"
        },
        {
          "internalType": "uint256",
          "name": "",
          "type": "uint256"
        }
      ],
      "name": "candidatesByRound",
      "outputs": [
        {
          "internalType": "string",
          "name": "",
          "type": "string"
        }
      ],
      "stateMutability": "view",
      "type": "function"
    },
    {
      "inputs": [
        {
          "internalType": "address",
          "name": "_voter",
          "type": "address"
        }
      ],
      "name": "checkIfVoted",
      "outputs": [
        {
          "internalType": "bool",
          "name": "",
          "type": "bool"
        }
      ],
      "stateMutability": "view",
      "type": "function"
    },
    {
      "inputs": [],
      "name": "currentRound",
      "outputs": [
        {
          "internalType": "uint256",
          "name": "",
          "type": "uint256"
        }
      ],
      "stateMutability": "view",
      "type": "function"
    },
    {
      "inputs": [],
      "name": "getAllCandidates",
      "outputs": [
        {
          "internalType": "string[]",
          "name": "",
          "type": "string[]"
        }
      ],
      "stateMutability": "view",
      "type": "function"
    },
    {
      "inputs": [],
      "name": "getAllResults",
      "outputs": [
        {
          "internalType": "string[]",
          "name": "",
          "type": "string[]"
        },
        {
          "internalType": "uint256[]",
          "name": "",
          "type": "uint256[]"
        }
      ],
      "stateMutability": "view",
      "type": "function"
    },
    {
      "inputs": [],
      "name": "getRemainingVotes",
      "outputs": [
        {
          "internalType": "uint256",
          "name": "",
          "type": "uint256"
        }
      ],
      "stateMutability": "view",
      "type": "function"
    },
    {
      "inputs": [
        {
          "internalType": "uint256",
          "name": "round",
          "type": "uint256"
        }
      ],
      "name": "getResultsByRound",
      "outputs": [
        {
          "internalType": "string[]",
          "name": "",
          "type": "string[]"
        },
        {
          "internalType": "uint256[]",
          "name": "",
          "type": "uint256[]"
        }
      ],
      "stateMutability": "view",
      "type": "function"
    },
    {
      "inputs": [],
      "name": "getTotalVotes",
      "outputs": [
        {
          "internalType": "uint256",
          "name": "",
          "type": "uint256"
        }
      ],
      "stateMutability": "view",
      "type": "function"
    },
    {
      "inputs": [
        {
          "internalType": "string",
          "name": "candidateName",
          "type": "string"
        }
      ],
      "name": "getVotesForCandidate",
      "outputs": [
        {
          "internalType": "uint256",
          "name": "",
          "type": "uint256"
        }
      ],
      "stateMutability": "view",
      "type": "function"
    },
    {
      "inputs": [],
      "name": "getVotingStatus",
      "outputs": [
        {
          "internalType": "uint256",
          "name": "_currentRound",
          "type": "uint256"
        },
        {
          "internalType": "uint256",
          "name": "_totalVotes",
          "type": "uint256"
        },
        {
          "internalType": "uint256",
          "name": "_maxVoters",
          "type": "uint256"
        },
        {
          "internalType": "uint256",
          "name": "_remainingVotes",
          "type": "uint256"
        },
        {
          "internalType": "bool",
          "name": "_votingActive",
          "type": "bool"
        },
        {
          "internalType": "bool",
          "name": "_isComplete",
          "type": "bool"
        }
      ],
      "stateMutability": "view",
      "type": "function"
    },
    {
      "inputs": [],
      "name": "getWinners",
      "outputs": [
        {
          "internalType": "string[]",
          "name": "winners",
          "type": "string[]"
        }
      ],
      "stateMutability": "view",
      "type": "function"
    },
    {
      "inputs": [
        {
          "internalType": "address",
          "name": "",
          "type": "address"
        }
      ],
      "name": "hasVoted",
      "outputs": [
        {
          "internalType": "bool",
          "name": "",
          "type": "bool"
        }
      ],
      "stateMutability": "view",
      "type": "function"
    },
    {
      "inputs": [],
      "name": "isVotingComplete",
      "outputs": [
        {
          "internalType": "bool",
          "name": "",
          "type": "bool"
        }
      ],
      "stateMutability": "view",
      "type": "function"
    },
    {
      "inputs": [],
      "name": "maxVoters",
      "outputs": [
        {
          "internalType": "uint256",
          "name": "",
          "type": "uint256"
        }
      ],
      "stateMutability": "view",
      "type": "function"
    },
    {
      "inputs": [],
      "name": "owner",
      "outputs": [
        {
          "internalType": "address",
          "name": "",
          "type": "address"
        }
      ],
      "stateMutability": "view",
      "type": "function"
    },
    {
      "inputs": [
        {
          "internalType": "address[]",
          "name": "voters",
          "type": "address[]"
        }
      ],
      "name": "resetVotersForNewRound",
      "outputs": [],
      "stateMutability": "nonpayable",
      "type": "function"
    },
    {
      "inputs": [
        {
          "internalType": "string",
          "name": "candidateName",
          "type": "string"
        }
      ],
      "name": "sendVote",
      "outputs": [],
      "stateMutability": "nonpayable",
      "type": "function"
    },
    {
      "inputs": [
        {
          "internalType": "uint256",
          "name": "_newMaxVoters",
          "type": "uint256"
        }
      ],
      "name": "setMaxVoters",
      "outputs": [],
      "stateMutability": "nonpayable",
      "type": "function"
    },
    {
      "inputs": [
        {
          "internalType": "string",
          "name": "",
          "type": "string"
        }
      ],
      "name": "votesByCandidate",
      "outputs": [
        {
          "internalType": "uint256",
          "name": "",
          "type": "uint256"
        }
      ],
      "stateMutability": "view",
      "type": "function"
    },
    {
      "inputs": [
        {
          "internalType": "uint256",
          "name": "",
          "type": "uint256"
        },
        {
          "internalType": "string",
          "name": "",
          "type": "string"
        }
      ],
      "name": "votesByRound",
      "outputs": [
        {
          "internalType": "uint256",
          "name": "",
          "type": "uint256"
        }
      ],
      "stateMutability": "view",
      "type": "function"
    },
    {
      "inputs": [],
      "name": "votingActive",
      "outputs": [
        {
          "internalType": "bool",
          "name": "",
          "type": "bool"
        }
      ],
      "stateMutability": "view",
      "type": "function"
    }
  ],
  "bytecode": "0x608060405234801561001057600080fd5b506040516130e83803806130e883398181016040528101906100329190610120565b60008111610075576040517f08c379a000000000000000000000000000000000000000000000000000000000815260040161006c906101d0565b60405180910390fd5b336000806101000a81548173ffffffffffffffffffffffffffffffffffffffff021916908373ffffffffffffffffffffffffffffffffffffffff1602179055508060018190555060016002819055506001600360006101000a81548160ff021916908315150217905550506101f0565b600080fd5b6000819050919050565b6100fd816100ea565b811461010857600080fd5b50565b60008151905061011a816100f4565b92915050565b600060208284031215610136576101356100e5565b5b60006101448482850161010b565b91505092915050565b600082825260208201905092915050565b7f4d617820766f74657273206d7573742062652067726561746572207468616e2060008201527f3000000000000000000000000000000000000000000000000000000000000000602082015250565b60006101ba60218361014d565b91506101c58261015e565b604082019050919050565b600060208201905081810360008301526101e9816101ad565b9050919050565b612ee9806101ff6000396000f3fe608060405234801561001057600080fd5b506004361061018e5760003560e01c806376d9be08116100de578063cf6f0e1d11610097578063df15c37e11610071578063df15c37e146104ca578063f0786096146104e8578063f3628b1114610506578063fd587daf146105245761018e565b8063cf6f0e1d14610460578063d5e50a6314610490578063d86ec595146104ae5761018e565b806376d9be08146103875780638a19c8bc146103a65780638da5cb5b146103c45780639a0e7d66146103e2578063a41c61d014610400578063b620855b146104305761018e565b806330ecad251161014b578063462e91ec11610125578063462e91ec146102e8578063493f4a5c14610304578063581c281c146103345780636ff15627146103575761018e565b806330ecad25146102695780633477ee2e1461029a578063408e2727146102ca5761018e565b80630146d0ca1461019357806309eef43e146101af578063159e7064146101df5780631dfeef7a146101fd5780632e6997fe1461022d5780632ef114871461024b575b600080fd5b6101ad60048036038101906101a89190611c7b565b610540565b005b6101c960048036038101906101c49190611d22565b610775565b6040516101d69190611d6a565b60405180910390f35b6101e7610795565b6040516101f49190611d6a565b60405180910390f35b61021760048036038101906102129190611d22565b610827565b6040516102249190611d6a565b60405180910390f35b61023561087d565b6040516102429190611ec6565b60405180910390f35b610253610956565b6040516102609190611d6a565b60405180910390f35b610283600480360381019061027e9190611f1e565b610969565b604051610291929190612009565b60405180910390f35b6102b460048036038101906102af9190611f1e565b610b31565b6040516102c1919061208a565b60405180910390f35b6102d2610bdd565b6040516102df9190611d6a565b60405180910390f35b61030260048036038101906102fd9190611c7b565b610bf0565b005b61031e60048036038101906103199190611c7b565b610e2a565b60405161032b91906120bb565b60405180910390f35b61033c610e58565b60405161034e969594939291906120d6565b60405180910390f35b610371600480360381019061036c9190611c7b565b610ea3565b60405161037e91906120bb565b60405180910390f35b61038f610f36565b60405161039d929190612009565b60405180910390f35b6103ae6110e4565b6040516103bb91906120bb565b60405180910390f35b6103cc6110ea565b6040516103d99190612146565b60405180910390f35b6103ea61110e565b6040516103f791906120bb565b60405180910390f35b61041a60048036038101906104159190612161565b611183565b60405161042791906120bb565b60405180910390f35b61044a60048036038101906104459190611c7b565b6111be565b6040516104579190611d6a565b60405180910390f35b61047a600480360381019061047591906121bd565b6111f4565b604051610487919061208a565b60405180910390f35b6104986112ad565b6040516104a591906120bb565b60405180910390f35b6104c860048036038101906104c391906122c5565b6112b3565b005b6104d26113d0565b6040516104df9190611ec6565b60405180910390f35b6104f0611632565b6040516104fd91906120bb565b60405180910390f35b61050e611637565b60405161051b91906120bb565b60405180910390f35b61053e60048036038101906105399190611f1e565b611653565b005b600460003373ffffffffffffffffffffffffffffffffffffffff1673ffffffffffffffffffffffffffffffffffffffff16815260200190815260200160002060009054906101000a900460ff16156105cd576040517f08c379a00000000000000000000000000000000000000000000000000000000081526004016105c49061235a565b60405180910390fd5b6009816040516105dd91906123b6565b908152602001604051809103902060009054906101000a900460ff16610638576040517f08c379a000000000000000000000000000000000000000000000000000000000815260040161062f90612419565b60405180910390fd5b600060088054905011610680576040517f08c379a000000000000000000000000000000000000000000000000000000000815260040161067790612485565b60405180910390fd5b60015461068b61110e565b106106cb576040517f08c379a00000000000000000000000000000000000000000000000000000000081526004016106c2906124f1565b60405180910390fd5b6001600460003373ffffffffffffffffffffffffffffffffffffffff1673ffffffffffffffffffffffffffffffffffffffff16815260200190815260200160002060006101000a81548160ff021916908315150217905550600160058260405161073591906123b6565b908152602001604051809103902060008282546107529190612540565b9250508190555060015461076461110e565b0361077257610771611778565b5b50565b60046020528060005260406000206000915054906101000a900460ff1681565b6000600360009054906101000a900460ff1680156107b857506000600880549050115b801561080e5750600460003373ffffffffffffffffffffffffffffffffffffffff1673ffffffffffffffffffffffffffffffffffffffff16815260200190815260200160002060009054906101000a900460ff16155b8015610822575060015461082061110e565b105b905090565b6000600460008373ffffffffffffffffffffffffffffffffffffffff1673ffffffffffffffffffffffffffffffffffffffff16815260200190815260200160002060009054906101000a900460ff169050919050565b60606008805480602002602001604051908101604052809291908181526020016000905b8282101561094d5783829060005260206000200180546108c0906125a3565b80601f01602080910402602001604051908101604052809291908181526020018280546108ec906125a3565b80156109395780601f1061090e57610100808354040283529160200191610939565b820191906000526020600020905b81548152906001019060200180831161091c57829003601f168201915b5050505050815260200190600101906108a1565b50505050905090565b600060015461096361110e565b14905090565b606080600060076000858152602001908152602001600020805480602002602001604051908101604052809291908181526020016000905b82821015610a4d5783829060005260206000200180546109c0906125a3565b80601f01602080910402602001604051908101604052809291908181526020018280546109ec906125a3565b8015610a395780601f10610a0e57610100808354040283529160200191610a39565b820191906000526020600020905b815481529060010190602001808311610a1c57829003601f168201915b5050505050815260200190600101906109a1565b5050505090506000815167ffffffffffffffff811115610a7057610a6f611b50565b5b604051908082528060200260200182016040528015610a9e5781602001602082028036833780820191505090505b50905060005b8251811015610b235760066000878152602001908152602001600020838281518110610ad357610ad26125d4565b5b6020026020010151604051610ae891906123b6565b908152602001604051809103902054828281518110610b0a57610b096125d4565b5b6020026020010181815250508080600101915050610aa4565b508181935093505050915091565b60088181548110610b4157600080fd5b906000526020600020016000915090508054610b5c906125a3565b80601f0160208091040260200160405190810160405280929190818152602001828054610b88906125a3565b8015610bd55780601f10610baa57610100808354040283529160200191610bd5565b820191906000526020600020905b815481529060010190602001808311610bb857829003601f168201915b505050505081565b600360009054906101000a900460ff1681565b60008054906101000a900473ffffffffffffffffffffffffffffffffffffffff1673ffffffffffffffffffffffffffffffffffffffff163373ffffffffffffffffffffffffffffffffffffffff1614610c7e576040517f08c379a0000000000000000000000000000000000000000000000000000000008152600401610c7590612675565b60405180910390fd5b600260088054905010610cc6576040517f08c379a0000000000000000000000000000000000000000000000000000000008152600401610cbd90612707565b60405180910390fd5b6000815111610d0a576040517f08c379a0000000000000000000000000000000000000000000000000000000008152600401610d0190612773565b60405180910390fd5b600981604051610d1a91906123b6565b908152602001604051809103902060009054906101000a900460ff1615610d76576040517f08c379a0000000000000000000000000000000000000000000000000000000008152600401610d6d906127df565b60405180910390fd5b600160025414610dbb576040517f08c379a0000000000000000000000000000000000000000000000000000000008152600401610db290612871565b60405180910390fd5b600881908060018154018082558091505060019003906000526020600020016000909190919091509081610def9190612a3d565b506001600982604051610e0291906123b6565b908152602001604051809103902060006101000a81548160ff02191690831515021790555050565b6005818051602081018201805184825260208301602085012081835280955050505050506000915090505481565b600080600080600080600254610e6c61110e565b600154610e77611637565b600360009054906101000a900460ff16610e8f610956565b955095509550955095509550909192939495565b6000600982604051610eb591906123b6565b908152602001604051809103902060009054906101000a900460ff16610f10576040517f08c379a0000000000000000000000000000000000000000000000000000000008152600401610f0790612419565b60405180910390fd5b600582604051610f2091906123b6565b9081526020016040518091039020549050919050565b6060806000600880549050905060008167ffffffffffffffff811115610f5f57610f5e611b50565b5b604051908082528060200260200182016040528015610f8d5781602001602082028036833780820191505090505b50905060005b8281101561100357600560088281548110610fb157610fb06125d4565b5b90600052602060002001604051610fc89190612b92565b908152602001604051809103902054828281518110610fea57610fe96125d4565b5b6020026020010181815250508080600101915050610f93565b5060088181805480602002602001604051908101604052809291908181526020016000905b828210156110d4578382906000526020600020018054611047906125a3565b80601f0160208091040260200160405190810160405280929190818152602001828054611073906125a3565b80156110c05780601f10611095576101008083540402835291602001916110c0565b820191906000526020600020905b8154815290600101906020018083116110a357829003601f168201915b505050505081526020019060010190611028565b5050505091509350935050509091565b60025481565b60008054906101000a900473ffffffffffffffffffffffffffffffffffffffff1681565b6000806000905060005b60088054905081101561117b5760056008828154811061113b5761113a6125d4565b5b906000526020600020016040516111529190612b92565b9081526020016040518091039020548261116c9190612540565b91508080600101915050611118565b508091505090565b600660205281600052604060002081805160208101820180518482526020830160208501208183528095505050505050600091509150505481565b6009818051602081018201805184825260208301602085012081835280955050505050506000915054906101000a900460ff1681565b6007602052816000526040600020818154811061121057600080fd5b9060005260206000200160009150915050805461122c906125a3565b80601f0160208091040260200160405190810160405280929190818152602001828054611258906125a3565b80156112a55780601f1061127a576101008083540402835291602001916112a5565b820191906000526020600020905b81548152906001019060200180831161128857829003601f168201915b505050505081565b60015481565b60008054906101000a900473ffffffffffffffffffffffffffffffffffffffff1673ffffffffffffffffffffffffffffffffffffffff163373ffffffffffffffffffffffffffffffffffffffff1614611341576040517f08c379a000000000000000000000000000000000000000000000000000000000815260040161133890612675565b60405180910390fd5b60005b81518110156113cc57600060046000848481518110611366576113656125d4565b5b602002602001015173ffffffffffffffffffffffffffffffffffffffff1673ffffffffffffffffffffffffffffffffffffffff16815260200190815260200160002060006101000a81548160ff0219169083151502179055508080600101915050611344565b5050565b606060006008805490501161141a576040517f08c379a000000000000000000000000000000000000000000000000000000000815260040161141190612bf5565b60405180910390fd5b60008060005b6008805490508110156114a6576000600560088381548110611445576114446125d4565b5b9060005260206000200160405161145c9190612b92565b9081526020016040518091039020549050838111156114815780935060019250611498565b83810361149757828061149390612c15565b9350505b5b508080600101915050611420565b508067ffffffffffffffff8111156114c1576114c0611b50565b5b6040519080825280602002602001820160405280156114f457816020015b60608152602001906001900390816114df5790505b5092506000805b60088054905081101561162b578360056008838154811061151f5761151e6125d4565b5b906000526020600020016040516115369190612b92565b9081526020016040518091039020540361161e576008818154811061155e5761155d6125d4565b5b906000526020600020018054611573906125a3565b80601f016020809104026020016040519081016040528092919081815260200182805461159f906125a3565b80156115ec5780601f106115c1576101008083540402835291602001916115ec565b820191906000526020600020905b8154815290600101906020018083116115cf57829003601f168201915b5050505050858381518110611604576116036125d4565b5b6020026020010181905250818061161a90612c15565b9250505b80806001019150506114fb565b5050505090565b600281565b600061164161110e565b60015461164e9190612c5d565b905090565b60008054906101000a900473ffffffffffffffffffffffffffffffffffffffff1673ffffffffffffffffffffffffffffffffffffffff163373ffffffffffffffffffffffffffffffffffffffff16146116e1576040517f08c379a00000000000000000000000000000000000000000000000000000000081526004016116d890612675565b60405180910390fd5b60006116eb61110e565b1461172b576040517f08c379a000000000000000000000000000000000000000000000000000000000815260040161172290612d03565b60405180910390fd5b6000811161176e576040517f08c379a000000000000000000000000000000000000000000000000000000000815260040161176590612d95565b60405180910390fd5b8060018190555050565b60006117826113d0565b905060018151036117ad576000600360006101000a81548160ff0219169083151502179055506117b7565b6117b6816117ba565b5b50565b60005b600880549050811015611865576005600882815481106117e0576117df6125d4565b5b906000526020600020016040516117f79190612b92565b9081526020016040518091039020546006600060025481526020019081526020016000206008838154811061182f5761182e6125d4565b5b906000526020600020016040516118469190612b92565b90815260200160405180910390208190555080806001019150506117bd565b50600860076000600254815260200190815260200160002090805461188b929190611a22565b506002600081548092919061189f90612c15565b919050555060005b6008805490508110156119565760006009600883815481106118cc576118cb6125d4565b5b906000526020600020016040516118e39190612b92565b908152602001604051809103902060006101000a81548160ff02191690831515021790555060006005600883815481106119205761191f6125d4565b5b906000526020600020016040516119379190612b92565b90815260200160405180910390208190555080806001019150506118a7565b50600860006119659190611a7f565b60005b8151811015611a1e576008828281518110611986576119856125d4565b5b60200260200101519080600181540180825580915050600190039060005260206000200160009091909190915090816119bf9190612a3d565b50600160098383815181106119d7576119d66125d4565b5b60200260200101516040516119ec91906123b6565b908152602001604051809103902060006101000a81548160ff0219169083151502179055508080600101915050611968565b5050565b828054828255906000526020600020908101928215611a6e5760005260206000209182015b82811115611a6d5782829081611a5d9190612dcb565b5091600101919060010190611a47565b5b509050611a7b9190611aa0565b5090565b5080546000825590600052602060002090810190611a9d9190611aa0565b50565b5b80821115611ac05760008181611ab79190611ac4565b50600101611aa1565b5090565b508054611ad0906125a3565b6000825580601f10611ae25750611b01565b601f016020900490600052602060002090810190611b009190611b04565b5b50565b5b80821115611b1d576000816000905550600101611b05565b5090565b6000604051905090565b600080fd5b600080fd5b600080fd5b600080fd5b6000601f19601f8301169050919050565b7f4e487b7100000000000000000000000000000000000000000000000000000000600052604160045260246000fd5b611b8882611b3f565b810181811067ffffffffffffffff82111715611ba757611ba6611b50565b5b80604052505050565b6000611bba611b21565b9050611bc68282611b7f565b919050565b600067ffffffffffffffff821115611be657611be5611b50565b5b611bef82611b3f565b9050602081019050919050565b82818337600083830152505050565b6000611c1e611c1984611bcb565b611bb0565b905082815260208101848484011115611c3a57611c39611b3a565b5b611c45848285611bfc565b509392505050565b600082601f830112611c6257611c61611b35565b5b8135611c72848260208601611c0b565b91505092915050565b600060208284031215611c9157611c90611b2b565b5b600082013567ffffffffffffffff811115611caf57611cae611b30565b5b611cbb84828501611c4d565b91505092915050565b600073ffffffffffffffffffffffffffffffffffffffff82169050919050565b6000611cef82611cc4565b9050919050565b611cff81611ce4565b8114611d0a57600080fd5b50565b600081359050611d1c81611cf6565b92915050565b600060208284031215611d3857611d37611b2b565b5b6000611d4684828501611d0d565b91505092915050565b60008115159050919050565b611d6481611d4f565b82525050565b6000602082019050611d7f6000830184611d5b565b92915050565b600081519050919050565b600082825260208201905092915050565b6000819050602082019050919050565b600081519050919050565b600082825260208201905092915050565b60005b83811015611deb578082015181840152602081019050611dd0565b60008484015250505050565b6000611e0282611db1565b611e0c8185611dbc565b9350611e1c818560208601611dcd565b611e2581611b3f565b840191505092915050565b6000611e3c8383611df7565b905092915050565b6000602082019050919050565b6000611e5c82611d85565b611e668185611d90565b935083602082028501611e7885611da1565b8060005b85811015611eb45784840389528151611e958582611e30565b9450611ea083611e44565b925060208a01995050600181019050611e7c565b50829750879550505050505092915050565b60006020820190508181036000830152611ee08184611e51565b905092915050565b6000819050919050565b611efb81611ee8565b8114611f0657600080fd5b50565b600081359050611f1881611ef2565b92915050565b600060208284031215611f3457611f33611b2b565b5b6000611f4284828501611f09565b91505092915050565b600081519050919050565b600082825260208201905092915050565b6000819050602082019050919050565b611f8081611ee8565b82525050565b6000611f928383611f77565b60208301905092915050565b6000602082019050919050565b6000611fb682611f4b565b611fc08185611f56565b9350611fcb83611f67565b8060005b83811015611ffc578151611fe38882611f86565b9750611fee83611f9e565b925050600181019050611fcf565b5085935050505092915050565b600060408201905081810360008301526120238185611e51565b905081810360208301526120378184611fab565b90509392505050565b600082825260208201905092915050565b600061205c82611db1565b6120668185612040565b9350612076818560208601611dcd565b61207f81611b3f565b840191505092915050565b600060208201905081810360008301526120a48184612051565b905092915050565b6120b581611ee8565b82525050565b60006020820190506120d060008301846120ac565b92915050565b600060c0820190506120eb60008301896120ac565b6120f860208301886120ac565b61210560408301876120ac565b61211260608301866120ac565b61211f6080830185611d5b565b61212c60a0830184611d5b565b979650505050505050565b61214081611ce4565b82525050565b600060208201905061215b6000830184612137565b92915050565b6000806040838503121561217857612177611b2b565b5b600061218685828601611f09565b925050602083013567ffffffffffffffff8111156121a7576121a6611b30565b5b6121b385828601611c4d565b9150509250929050565b600080604083850312156121d4576121d3611b2b565b5b60006121e285828601611f09565b92505060206121f385828601611f09565b9150509250929050565b600067ffffffffffffffff82111561221857612217611b50565b5b602082029050602081019050919050565b600080fd5b600061224161223c846121fd565b611bb0565b9050808382526020820190506020840283018581111561226457612263612229565b5b835b8181101561228d57806122798882611d0d565b845260208401935050602081019050612266565b5050509392505050565b600082601f8301126122ac576122ab611b35565b5b81356122bc84826020860161222e565b91505092915050565b6000602082840312156122db576122da611b2b565b5b600082013567ffffffffffffffff8111156122f9576122f8611b30565b5b61230584828501612297565b91505092915050565b7f596f75206861766520616c726561647920766f74656400000000000000000000600082015250565b6000612344601683612040565b915061234f8261230e565b602082019050919050565b6000602082019050818103600083015261237381612337565b9050919050565b600081905092915050565b600061239082611db1565b61239a818561237a565b93506123aa818560208601611dcd565b80840191505092915050565b60006123c28284612385565b915081905092915050565b7f43616e64696461746520646f6573206e6f742065786973740000000000000000600082015250565b6000612403601883612040565b915061240e826123cd565b602082019050919050565b60006020820190508181036000830152612432816123f6565b9050919050565b7f4e6f2063616e6469646174657320617661696c61626c65207965740000000000600082015250565b600061246f601b83612040565b915061247a82612439565b602082019050919050565b6000602082019050818103600083015261249e81612462565b9050919050565b7f566f74696e67206c696d69742072656163686564000000000000000000000000600082015250565b60006124db601483612040565b91506124e6826124a5565b602082019050919050565b6000602082019050818103600083015261250a816124ce565b9050919050565b7f4e487b7100000000000000000000000000000000000000000000000000000000600052601160045260246000fd5b600061254b82611ee8565b915061255683611ee8565b925082820190508082111561256e5761256d612511565b5b92915050565b7f4e487b7100000000000000000000000000000000000000000000000000000000600052602260045260246000fd5b600060028204905060018216806125bb57607f821691505b6020821081036125ce576125cd612574565b5b50919050565b7f4e487b7100000000000000000000000000000000000000000000000000000000600052603260045260246000fd5b7f4f6e6c79206f776e65722063616e20706572666f726d2074686973206163746960008201527f6f6e000000000000000000000000000000000000000000000000000000000000602082015250565b600061265f602283612040565b915061266a82612603565b604082019050919050565b6000602082019050818103600083015261268e81612652565b9050919050565b7f4d6178696d756d206e756d626572206f662063616e646964617465732072656160008201527f6368656420283229000000000000000000000000000000000000000000000000602082015250565b60006126f1602883612040565b91506126fc82612695565b604082019050919050565b60006020820190508181036000830152612720816126e4565b9050919050565b7f43616e646964617465206e616d652063616e6e6f7420626520656d7074790000600082015250565b600061275d601e83612040565b915061276882612727565b602082019050919050565b6000602082019050818103600083015261278c81612750565b9050919050565b7f43616e64696461746520616c7265616479206578697374730000000000000000600082015250565b60006127c9601883612040565b91506127d482612793565b602082019050919050565b600060208201905081810360008301526127f8816127bc565b9050919050565b7f43616e6e6f74206164642063616e64696461746573206166746572207468652060008201527f666972737420726f756e64206861732073746172746564000000000000000000602082015250565b600061285b603783612040565b9150612866826127ff565b604082019050919050565b6000602082019050818103600083015261288a8161284e565b9050919050565b60008190508160005260206000209050919050565b60006020601f8301049050919050565b600082821b905092915050565b6000600883026128f37fffffffffffffffffffffffffffffffffffffffffffffffffffffffffffffffff826128b6565b6128fd86836128b6565b95508019841693508086168417925050509392505050565b6000819050919050565b600061293a61293561293084611ee8565b612915565b611ee8565b9050919050565b6000819050919050565b6129548361291f565b61296861296082612941565b8484546128c3565b825550505050565b600090565b61297d612970565b61298881848461294b565b505050565b5b818110156129ac576129a1600082612975565b60018101905061298e565b5050565b601f8211156129f1576129c281612891565b6129cb846128a6565b810160208510156129da578190505b6129ee6129e6856128a6565b83018261298d565b50505b505050565b600082821c905092915050565b6000612a14600019846008026129f6565b1980831691505092915050565b6000612a2d8383612a03565b9150826002028217905092915050565b612a4682611db1565b67ffffffffffffffff811115612a5f57612a5e611b50565b5b612a6982546125a3565b612a748282856129b0565b600060209050601f831160018114612aa75760008415612a95578287015190505b612a9f8582612a21565b865550612b07565b601f198416612ab586612891565b60005b82811015612add57848901518255600182019150602085019450602081019050612ab8565b86831015612afa5784890151612af6601f891682612a03565b8355505b6001600288020188555050505b505050505050565b60008154612b1c816125a3565b612b26818661237a565b94506001821660008114612b415760018114612b5657612b89565b60ff1983168652811515820286019350612b89565b612b5f85612891565b60005b83811015612b8157815481890152600182019150602081019050612b62565b838801955050505b50505092915050565b6000612b9e8284612b0f565b915081905092915050565b7f4e6f2063616e6469646174657320617661696c61626c65000000000000000000600082015250565b6000612bdf601783612040565b9150612bea82612ba9565b602082019050919050565b60006020820190508181036000830152612c0e81612bd2565b9050919050565b6000612c2082611ee8565b91507fffffffffffffffffffffffffffffffffffffffffffffffffffffffffffffffff8203612c5257612c51612511565b5b600182019050919050565b6000612c6882611ee8565b9150612c7383611ee8565b9250828203905081811115612c8b57612c8a612511565b5b92915050565b7f43616e6e6f74206368616e6765206d617820766f74657273206166746572207660008201527f6f74696e67207374617274656400000000000000000000000000000000000000602082015250565b6000612ced602d83612040565b9150612cf882612c91565b604082019050919050565b60006020820190508181036000830152612d1c81612ce0565b9050919050565b7f4d617820766f74657273206d7573742062652067726561746572207468616e2060008201527f3000000000000000000000000000000000000000000000000000000000000000602082015250565b6000612d7f602183612040565b9150612d8a82612d23565b604082019050919050565b60006020820190508181036000830152612dae81612d72565b9050919050565b600081549050612dc4816125a3565b9050919050565b818103612dd9575050612eb1565b612de282612db5565b67ffffffffffffffff811115612dfb57612dfa611b50565b5b612e0582546125a3565b612e108282856129b0565b6000601f831160018114612e3f5760008415612e2d578287015490505b612e378582612a21565b865550612eaa565b601f198416612e4d87612891565b9650612e5886612891565b60005b82811015612e8057848901548255600182019150600185019450602081019050612e5b565b86831015612e9d5784890154612e99601f891682612a03565b8355505b6001600288020188555050505b5050505050505b56fea2646970667358221220d493b3ec12c8b8e7d6168181101b3fb61b9705e555cba5906665812ba4b80d6364736f6c634300081c0033",
  "linkReferences": {},
  "deployedLinkReferences": {}
}