{
  "_format": "hh-sol-artifact-1",
  "contractName": "Voting",
  "sourceName": "contracts/Voting.sol",
  "abi": [
    {
      "inputs": [
        {
          "internalType": "uint256",
          "name": "_maxVoters",
          "type": "uint256"
        }
      ],
      "stateMutability": "nonpayable",
      "type": "constructor"
    },
    {
      "anonymous": false,
      "inputs": [
        {
          "indexed": false,
          "internalType": "string",
          "name": "candidate",
          "type": "string"
        }
      ],
      "name": "CandidateAdded",
      "type": "event"
    },
    {
      "anonymous": false,
      "inputs": [
        {
          "indexed": false,
          "internalType": "uint256",
          "name": "round",
          "type": "uint256"
        },
        {
          "indexed": false,
          "internalType": "string[]",
          "name": "candidates",
          "type": "string[]"
        }
      ],
      "name": "RoundStarted",
      "type": "event"
    },
    {
      "anonymous": false,
      "inputs": [
        {
          "indexed": true,
          "internalType": "address",
          "name": "voter",
          "type": "address"
        },
        {
          "indexed": false,
          "internalType": "string",
          "name": "candidate",
          "type": "string"
        },
        {
          "indexed": false,
          "internalType": "uint256",
          "name": "round",
          "type": "uint256"
        }
      ],
      "name": "VoteCast",
      "type": "event"
    },
    {
      "anonymous": false,
      "inputs": [
        {
          "indexed": false,
          "internalType": "string",
          "name": "winner",
          "type": "string"
        }
      ],
      "name": "VotingCompleted",
      "type": "event"
    },
    {
      "anonymous": false,
      "inputs": [],
      "name": "VotingRestarted",
      "type": "event"
    },
    {
      "inputs": [],
      "name": "MAX_CANDIDATES",
      "outputs": [
        {
          "internalType": "uint256",
          "name": "",
          "type": "uint256"
        }
      ],
      "stateMutability": "view",
      "type": "function"
    },
    {
      "inputs": [
        {
          "internalType": "string",
          "name": "candidateName",
          "type": "string"
        }
      ],
      "name": "addCandidate",
      "outputs": [],
      "stateMutability": "nonpayable",
      "type": "function"
    },
    {
      "inputs": [],
      "name": "canVote",
      "outputs": [
        {
          "internalType": "bool",
          "name": "",
          "type": "bool"
        }
      ],
      "stateMutability": "view",
      "type": "function"
    },
    {
      "inputs": [
        {
          "internalType": "string",
          "name": "",
          "type": "string"
        }
      ],
      "name": "candidateExists",
      "outputs": [
        {
          "internalType": "bool",
          "name": "",
          "type": "bool"
        }
      ],
      "stateMutability": "view",
      "type": "function"
    },
    {
      "inputs": [
        {
          "internalType": "uint256",
          "name": "",
          "type": "uint256"
        }
      ],
      "name": "candidates",
      "outputs": [
        {
          "internalType": "string",
          "name": "",
          "type": "string"
        }
      ],
      "stateMutability": "view",
      "type": "function"
    },
    {
      "inputs": [
        {
          "internalType": "uint256",
          "name": "",
          "type": "uint256"
        },
        {
          "internalType": "uint256",
          "name": "",
          "type": "uint256"
        }
      ],
      "name": "candidatesByRound",
      "outputs": [
        {
          "internalType": "string",
          "name": "",
          "type": "string"
        }
      ],
      "stateMutability": "view",
      "type": "function"
    },
    {
      "inputs": [
        {
          "internalType": "address",
          "name": "_voter",
          "type": "address"
        }
      ],
      "name": "checkIfVoted",
      "outputs": [
        {
          "internalType": "bool",
          "name": "",
          "type": "bool"
        }
      ],
      "stateMutability": "view",
      "type": "function"
    },
    {
      "inputs": [],
      "name": "currentRound",
      "outputs": [
        {
          "internalType": "uint256",
          "name": "",
          "type": "uint256"
        }
      ],
      "stateMutability": "view",
      "type": "function"
    },
    {
      "inputs": [],
      "name": "getAllCandidates",
      "outputs": [
        {
          "internalType": "string[]",
          "name": "",
          "type": "string[]"
        }
      ],
      "stateMutability": "view",
      "type": "function"
    },
    {
      "inputs": [],
      "name": "getAllResults",
      "outputs": [
        {
          "internalType": "string[]",
          "name": "",
          "type": "string[]"
        },
        {
          "internalType": "uint256[]",
          "name": "",
          "type": "uint256[]"
        }
      ],
      "stateMutability": "view",
      "type": "function"
    },
    {
      "inputs": [],
      "name": "getAllVoters",
      "outputs": [
        {
          "internalType": "address[]",
          "name": "",
          "type": "address[]"
        }
      ],
      "stateMutability": "view",
      "type": "function"
    },
    {
      "inputs": [],
      "name": "getRemainingVotes",
      "outputs": [
        {
          "internalType": "uint256",
          "name": "",
          "type": "uint256"
        }
      ],
      "stateMutability": "view",
      "type": "function"
    },
    {
      "inputs": [
        {
          "internalType": "uint256",
          "name": "round",
          "type": "uint256"
        }
      ],
      "name": "getResultsByRound",
      "outputs": [
        {
          "internalType": "string[]",
          "name": "",
          "type": "string[]"
        },
        {
          "internalType": "uint256[]",
          "name": "",
          "type": "uint256[]"
        }
      ],
      "stateMutability": "view",
      "type": "function"
    },
    {
      "inputs": [],
      "name": "getTotalVotes",
      "outputs": [
        {
          "internalType": "uint256",
          "name": "",
          "type": "uint256"
        }
      ],
      "stateMutability": "view",
      "type": "function"
    },
    {
      "inputs": [],
      "name": "getVoterCount",
      "outputs": [
        {
          "internalType": "uint256",
          "name": "",
          "type": "uint256"
        }
      ],
      "stateMutability": "view",
      "type": "function"
    },
    {
      "inputs": [
        {
          "internalType": "string",
          "name": "candidateName",
          "type": "string"
        }
      ],
      "name": "getVotesForCandidate",
      "outputs": [
        {
          "internalType": "uint256",
          "name": "",
          "type": "uint256"
        }
      ],
      "stateMutability": "view",
      "type": "function"
    },
    {
      "inputs": [],
      "name": "getVotingStatus",
      "outputs": [
        {
          "internalType": "uint256",
          "name": "_currentRound",
          "type": "uint256"
        },
        {
          "internalType": "uint256",
          "name": "_totalVotes",
          "type": "uint256"
        },
        {
          "internalType": "uint256",
          "name": "_maxVoters",
          "type": "uint256"
        },
        {
          "internalType": "uint256",
          "name": "_remainingVotes",
          "type": "uint256"
        },
        {
          "internalType": "bool",
          "name": "_votingActive",
          "type": "bool"
        },
        {
          "internalType": "bool",
          "name": "_isComplete",
          "type": "bool"
        }
      ],
      "stateMutability": "view",
      "type": "function"
    },
    {
      "inputs": [],
      "name": "getWinners",
      "outputs": [
        {
          "internalType": "string[]",
          "name": "winners",
          "type": "string[]"
        }
      ],
      "stateMutability": "view",
      "type": "function"
    },
    {
      "inputs": [
        {
          "internalType": "address",
          "name": "",
          "type": "address"
        }
      ],
      "name": "hasVoted",
      "outputs": [
        {
          "internalType": "bool",
          "name": "",
          "type": "bool"
        }
      ],
      "stateMutability": "view",
      "type": "function"
    },
    {
      "inputs": [
        {
          "internalType": "address",
          "name": "",
          "type": "address"
        }
      ],
      "name": "isVoter",
      "outputs": [
        {
          "internalType": "bool",
          "name": "",
          "type": "bool"
        }
      ],
      "stateMutability": "view",
      "type": "function"
    },
    {
      "inputs": [],
      "name": "isVotingComplete",
      "outputs": [
        {
          "internalType": "bool",
          "name": "",
          "type": "bool"
        }
      ],
      "stateMutability": "view",
      "type": "function"
    },
    {
      "inputs": [],
      "name": "maxVoters",
      "outputs": [
        {
          "internalType": "uint256",
          "name": "",
          "type": "uint256"
        }
      ],
      "stateMutability": "view",
      "type": "function"
    },
    {
      "inputs": [],
      "name": "owner",
      "outputs": [
        {
          "internalType": "address",
          "name": "",
          "type": "address"
        }
      ],
      "stateMutability": "view",
      "type": "function"
    },
    {
      "inputs": [],
      "name": "resetAllVoters",
      "outputs": [],
      "stateMutability": "nonpayable",
      "type": "function"
    },
    {
      "inputs": [
        {
          "internalType": "address[]",
          "name": "voterAddresses",
          "type": "address[]"
        }
      ],
      "name": "resetVotersForNewRound",
      "outputs": [],
      "stateMutability": "nonpayable",
      "type": "function"
    },
    {
      "inputs": [],
      "name": "restartVoting",
      "outputs": [],
      "stateMutability": "nonpayable",
      "type": "function"
    },
    {
      "inputs": [
        {
          "internalType": "string",
          "name": "candidateName",
          "type": "string"
        }
      ],
      "name": "sendVote",
      "outputs": [],
      "stateMutability": "nonpayable",
      "type": "function"
    },
    {
      "inputs": [
        {
          "internalType": "uint256",
          "name": "_newMaxVoters",
          "type": "uint256"
        }
      ],
      "name": "setMaxVoters",
      "outputs": [],
      "stateMutability": "nonpayable",
      "type": "function"
    },
    {
      "inputs": [
        {
          "internalType": "uint256",
          "name": "",
          "type": "uint256"
        }
      ],
      "name": "voters",
      "outputs": [
        {
          "internalType": "address",
          "name": "",
          "type": "address"
        }
      ],
      "stateMutability": "view",
      "type": "function"
    },
    {
      "inputs": [
        {
          "internalType": "string",
          "name": "",
          "type": "string"
        }
      ],
      "name": "votesByCandidate",
      "outputs": [
        {
          "internalType": "uint256",
          "name": "",
          "type": "uint256"
        }
      ],
      "stateMutability": "view",
      "type": "function"
    },
    {
      "inputs": [
        {
          "internalType": "uint256",
          "name": "",
          "type": "uint256"
        },
        {
          "internalType": "string",
          "name": "",
          "type": "string"
        }
      ],
      "name": "votesByRound",
      "outputs": [
        {
          "internalType": "uint256",
          "name": "",
          "type": "uint256"
        }
      ],
      "stateMutability": "view",
      "type": "function"
    },
    {
      "inputs": [],
      "name": "votingActive",
      "outputs": [
        {
          "internalType": "bool",
          "name": "",
          "type": "bool"
        }
      ],
      "stateMutability": "view",
      "type": "function"
    }
  ],
  "bytecode": "0x608060405234801561001057600080fd5b50604051613ab4380380613ab483398181016040528101906100329190610120565b60008111610075576040517f08c379a000000000000000000000000000000000000000000000000000000000815260040161006c906101d0565b60405180910390fd5b336000806101000a81548173ffffffffffffffffffffffffffffffffffffffff021916908373ffffffffffffffffffffffffffffffffffffffff1602179055508060018190555060016002819055506001600360006101000a81548160ff021916908315150217905550506101f0565b600080fd5b6000819050919050565b6100fd816100ea565b811461010857600080fd5b50565b60008151905061011a816100f4565b92915050565b600060208284031215610136576101356100e5565b5b60006101448482850161010b565b91505092915050565b600082825260208201905092915050565b7f4d617820766f74657273206d7573742062652067726561746572207468616e2060008201527f3000000000000000000000000000000000000000000000000000000000000000602082015250565b60006101ba60218361014d565b91506101c58261015e565b604082019050919050565b600060208201905081810360008301526101e9816101ad565b9050919050565b6138b5806101ff6000396000f3fe608060405234801561001057600080fd5b50600436106101f05760003560e01c80636ff156271161010f578063cf6f0e1d116100a2578063df15c37e11610071578063df15c37e146105dc578063f0786096146105fa578063f3628b1114610618578063fd587daf14610636576101f0565b8063cf6f0e1d14610542578063d5e50a6314610572578063d86ec59514610590578063da58c7d9146105ac576101f0565b80639a0e7d66116100de5780639a0e7d6614610494578063a41c61d0146104b2578063a7771ee3146104e2578063b620855b14610512576101f0565b80636ff156271461040957806376d9be08146104395780638a19c8bc146104585780638da5cb5b14610476576101f0565b806330ecad2511610187578063462e91ec11610156578063462e91ec14610390578063490b8c84146103ac578063493f4a5c146103b6578063581c281c146103e6576101f0565b806330ecad25146102f35780633477ee2e1461032457806335bbe70e14610354578063408e272714610372576101f0565b80631dfeef7a116101c35780631dfeef7a1461027d5780632d825abb146102ad5780632e6997fe146102b75780632ef11487146102d5576101f0565b80630146d0ca146101f557806309eef43e1461021157806311174a2914610241578063159e70641461025f575b600080fd5b61020f600480360381019061020a9190612507565b610652565b005b61022b600480360381019061022691906125ae565b6109e6565b60405161023891906125f6565b60405180910390f35b610249610a06565b604051610256919061262a565b60405180910390f35b610267610a13565b60405161027491906125f6565b60405180910390f35b610297600480360381019061029291906125ae565b610aa5565b6040516102a491906125f6565b60405180910390f35b6102b5610afb565b005b6102bf610c3f565b6040516102cc9190612786565b60405180910390f35b6102dd610d18565b6040516102ea91906125f6565b60405180910390f35b61030d600480360381019061030891906127d4565b610d2b565b60405161031b9291906128bf565b60405180910390f35b61033e600480360381019061033991906127d4565b610ef3565b60405161034b9190612940565b60405180910390f35b61035c610f9f565b6040516103699190612a20565b60405180910390f35b61037a61102d565b60405161038791906125f6565b60405180910390f35b6103aa60048036038101906103a59190612507565b611040565b005b6103b46112b1565b005b6103d060048036038101906103cb9190612507565b6115a9565b6040516103dd919061262a565b60405180910390f35b6103ee6115d7565b60405161040096959493929190612a42565b60405180910390f35b610423600480360381019061041e9190612507565b611622565b604051610430919061262a565b60405180910390f35b6104416116b5565b60405161044f9291906128bf565b60405180910390f35b610460611863565b60405161046d919061262a565b60405180910390f35b61047e611869565b60405161048b9190612ab2565b60405180910390f35b61049c61188d565b6040516104a9919061262a565b60405180910390f35b6104cc60048036038101906104c79190612acd565b611902565b6040516104d9919061262a565b60405180910390f35b6104fc60048036038101906104f791906125ae565b61193d565b60405161050991906125f6565b60405180910390f35b61052c60048036038101906105279190612507565b61195d565b60405161053991906125f6565b60405180910390f35b61055c60048036038101906105579190612b29565b611993565b6040516105699190612940565b60405180910390f35b61057a611a4c565b604051610587919061262a565b60405180910390f35b6105aa60048036038101906105a59190612c31565b611a52565b005b6105c660048036038101906105c191906127d4565b611b6f565b6040516105d39190612ab2565b60405180910390f35b6105e4611bae565b6040516105f19190612786565b60405180910390f35b610602611e10565b60405161060f919061262a565b60405180910390f35b610620611e15565b60405161062d919061262a565b60405180910390f35b610650600480360381019061064b91906127d4565b611e31565b005b600460003373ffffffffffffffffffffffffffffffffffffffff1673ffffffffffffffffffffffffffffffffffffffff16815260200190815260200160002060009054906101000a900460ff16156106df576040517f08c379a00000000000000000000000000000000000000000000000000000000081526004016106d690612cc6565b60405180910390fd5b6009816040516106ef9190612d22565b908152602001604051809103902060009054906101000a900460ff1661074a576040517f08c379a000000000000000000000000000000000000000000000000000000000815260040161074190612d85565b60405180910390fd5b600060088054905011610792576040517f08c379a000000000000000000000000000000000000000000000000000000000815260040161078990612df1565b60405180910390fd5b60015461079d61188d565b106107dd576040517f08c379a00000000000000000000000000000000000000000000000000000000081526004016107d490612e5d565b60405180910390fd5b600b60003373ffffffffffffffffffffffffffffffffffffffff1673ffffffffffffffffffffffffffffffffffffffff16815260200190815260200160002060009054906101000a900460ff166108ea57600a339080600181540180825580915050600190039060005260206000200160009091909190916101000a81548173ffffffffffffffffffffffffffffffffffffffff021916908373ffffffffffffffffffffffffffffffffffffffff1602179055506001600b60003373ffffffffffffffffffffffffffffffffffffffff1673ffffffffffffffffffffffffffffffffffffffff16815260200190815260200160002060006101000a81548160ff0219169083151502179055505b6001600460003373ffffffffffffffffffffffffffffffffffffffff1673ffffffffffffffffffffffffffffffffffffffff16815260200190815260200160002060006101000a81548160ff02191690831515021790555060016005826040516109549190612d22565b908152602001604051809103902060008282546109719190612eac565b925050819055503373ffffffffffffffffffffffffffffffffffffffff167f1fb22019789732eae1f9274664ab21c768f1e37e3782d8f5b620d139aac293b4826002546040516109c2929190612ee0565b60405180910390a26001546109d561188d565b036109e3576109e2611f56565b5b50565b60046020528060005260406000206000915054906101000a900460ff1681565b6000600a80549050905090565b6000600360009054906101000a900460ff168015610a3657506000600880549050115b8015610a8c5750600460003373ffffffffffffffffffffffffffffffffffffffff1673ffffffffffffffffffffffffffffffffffffffff16815260200190815260200160002060009054906101000a900460ff16155b8015610aa05750600154610a9e61188d565b105b905090565b6000600460008373ffffffffffffffffffffffffffffffffffffffff1673ffffffffffffffffffffffffffffffffffffffff16815260200190815260200160002060009054906101000a900460ff169050919050565b60008054906101000a900473ffffffffffffffffffffffffffffffffffffffff1673ffffffffffffffffffffffffffffffffffffffff163373ffffffffffffffffffffffffffffffffffffffff1614610b89576040517f08c379a0000000000000000000000000000000000000000000000000000000008152600401610b8090612f82565b60405180910390fd5b60005b600a80549050811015610c3c57600060046000600a8481548110610bb357610bb2612fa2565b5b9060005260206000200160009054906101000a900473ffffffffffffffffffffffffffffffffffffffff1673ffffffffffffffffffffffffffffffffffffffff1673ffffffffffffffffffffffffffffffffffffffff16815260200190815260200160002060006101000a81548160ff0219169083151502179055508080600101915050610b8c565b50565b60606008805480602002602001604051908101604052809291908181526020016000905b82821015610d0f578382906000526020600020018054610c8290613000565b80601f0160208091040260200160405190810160405280929190818152602001828054610cae90613000565b8015610cfb5780601f10610cd057610100808354040283529160200191610cfb565b820191906000526020600020905b815481529060010190602001808311610cde57829003601f168201915b505050505081526020019060010190610c63565b50505050905090565b6000600154610d2561188d565b14905090565b606080600060076000858152602001908152602001600020805480602002602001604051908101604052809291908181526020016000905b82821015610e0f578382906000526020600020018054610d8290613000565b80601f0160208091040260200160405190810160405280929190818152602001828054610dae90613000565b8015610dfb5780601f10610dd057610100808354040283529160200191610dfb565b820191906000526020600020905b815481529060010190602001808311610dde57829003601f168201915b505050505081526020019060010190610d63565b5050505090506000815167ffffffffffffffff811115610e3257610e316123dc565b5b604051908082528060200260200182016040528015610e605781602001602082028036833780820191505090505b50905060005b8251811015610ee55760066000878152602001908152602001600020838281518110610e9557610e94612fa2565b5b6020026020010151604051610eaa9190612d22565b908152602001604051809103902054828281518110610ecc57610ecb612fa2565b5b6020026020010181815250508080600101915050610e66565b508181935093505050915091565b60088181548110610f0357600080fd5b906000526020600020016000915090508054610f1e90613000565b80601f0160208091040260200160405190810160405280929190818152602001828054610f4a90613000565b8015610f975780601f10610f6c57610100808354040283529160200191610f97565b820191906000526020600020905b815481529060010190602001808311610f7a57829003601f168201915b505050505081565b6060600a80548060200260200160405190810160405280929190818152602001828054801561102357602002820191906000526020600020905b8160009054906101000a900473ffffffffffffffffffffffffffffffffffffffff1673ffffffffffffffffffffffffffffffffffffffff1681526020019060010190808311610fd9575b5050505050905090565b600360009054906101000a900460ff1681565b60008054906101000a900473ffffffffffffffffffffffffffffffffffffffff1673ffffffffffffffffffffffffffffffffffffffff163373ffffffffffffffffffffffffffffffffffffffff16146110ce576040517f08c379a00000000000000000000000000000000000000000000000000000000081526004016110c590612f82565b60405180910390fd5b600260088054905010611116576040517f08c379a000000000000000000000000000000000000000000000000000000000815260040161110d906130a3565b60405180910390fd5b600081511161115a576040517f08c379a00000000000000000000000000000000000000000000000000000000081526004016111519061310f565b60405180910390fd5b60098160405161116a9190612d22565b908152602001604051809103902060009054906101000a900460ff16156111c6576040517f08c379a00000000000000000000000000000000000000000000000000000000081526004016111bd9061317b565b60405180910390fd5b60016002541461120b576040517f08c379a00000000000000000000000000000000000000000000000000000000081526004016112029061320d565b60405180910390fd5b60088190806001815401808255809150506001900390600052602060002001600090919091909150908161123f91906133d9565b5060016009826040516112529190612d22565b908152602001604051809103902060006101000a81548160ff0219169083151502179055507ff29562dad1599aea0ebb142466120aab326d5efa8f839df82a9c064bf78e8938816040516112a69190612940565b60405180910390a150565b60008054906101000a900473ffffffffffffffffffffffffffffffffffffffff1673ffffffffffffffffffffffffffffffffffffffff163373ffffffffffffffffffffffffffffffffffffffff161461133f576040517f08c379a000000000000000000000000000000000000000000000000000000000815260040161133690612f82565b60405180910390fd5b60016002819055506001600360006101000a81548160ff02191690831515021790555060005b60088054905081101561141457600060096008838154811061138a57611389612fa2565b5b906000526020600020016040516113a1919061352e565b908152602001604051809103902060006101000a81548160ff02191690831515021790555060006005600883815481106113de576113dd612fa2565b5b906000526020600020016040516113f5919061352e565b9081526020016040518091039020819055508080600101915050611365565b5060086000611423919061228d565b60005b600a8054905081101561156c57600060046000600a848154811061144d5761144c612fa2565b5b9060005260206000200160009054906101000a900473ffffffffffffffffffffffffffffffffffffffff1673ffffffffffffffffffffffffffffffffffffffff1673ffffffffffffffffffffffffffffffffffffffff16815260200190815260200160002060006101000a81548160ff0219169083151502179055506000600b6000600a84815481106114e3576114e2612fa2565b5b9060005260206000200160009054906101000a900473ffffffffffffffffffffffffffffffffffffffff1673ffffffffffffffffffffffffffffffffffffffff1673ffffffffffffffffffffffffffffffffffffffff16815260200190815260200160002060006101000a81548160ff0219169083151502179055508080600101915050611426565b50600a600061157b91906122ae565b7f27529f0844ffa26fa389c42272df278e0ff0ee7cc1ed3c946db239737901fa9460405160405180910390a1565b6005818051602081018201805184825260208301602085012081835280955050505050506000915090505481565b6000806000806000806002546115eb61188d565b6001546115f6611e15565b600360009054906101000a900460ff1661160e610d18565b955095509550955095509550909192939495565b60006009826040516116349190612d22565b908152602001604051809103902060009054906101000a900460ff1661168f576040517f08c379a000000000000000000000000000000000000000000000000000000000815260040161168690612d85565b60405180910390fd5b60058260405161169f9190612d22565b9081526020016040518091039020549050919050565b6060806000600880549050905060008167ffffffffffffffff8111156116de576116dd6123dc565b5b60405190808252806020026020018201604052801561170c5781602001602082028036833780820191505090505b50905060005b82811015611782576005600882815481106117305761172f612fa2565b5b90600052602060002001604051611747919061352e565b90815260200160405180910390205482828151811061176957611768612fa2565b5b6020026020010181815250508080600101915050611712565b5060088181805480602002602001604051908101604052809291908181526020016000905b828210156118535783829060005260206000200180546117c690613000565b80601f01602080910402602001604051908101604052809291908181526020018280546117f290613000565b801561183f5780601f106118145761010080835404028352916020019161183f565b820191906000526020600020905b81548152906001019060200180831161182257829003601f168201915b5050505050815260200190600101906117a7565b5050505091509350935050509091565b60025481565b60008054906101000a900473ffffffffffffffffffffffffffffffffffffffff1681565b6000806000905060005b6008805490508110156118fa576005600882815481106118ba576118b9612fa2565b5b906000526020600020016040516118d1919061352e565b908152602001604051809103902054826118eb9190612eac565b91508080600101915050611897565b508091505090565b600660205281600052604060002081805160208101820180518482526020830160208501208183528095505050505050600091509150505481565b600b6020528060005260406000206000915054906101000a900460ff1681565b6009818051602081018201805184825260208301602085012081835280955050505050506000915054906101000a900460ff1681565b600760205281600052604060002081815481106119af57600080fd5b906000526020600020016000915091505080546119cb90613000565b80601f01602080910402602001604051908101604052809291908181526020018280546119f790613000565b8015611a445780601f10611a1957610100808354040283529160200191611a44565b820191906000526020600020905b815481529060010190602001808311611a2757829003601f168201915b505050505081565b60015481565b60008054906101000a900473ffffffffffffffffffffffffffffffffffffffff1673ffffffffffffffffffffffffffffffffffffffff163373ffffffffffffffffffffffffffffffffffffffff1614611ae0576040517f08c379a0000000000000000000000000000000000000000000000000000000008152600401611ad790612f82565b60405180910390fd5b60005b8151811015611b6b57600060046000848481518110611b0557611b04612fa2565b5b602002602001015173ffffffffffffffffffffffffffffffffffffffff1673ffffffffffffffffffffffffffffffffffffffff16815260200190815260200160002060006101000a81548160ff0219169083151502179055508080600101915050611ae3565b5050565b600a8181548110611b7f57600080fd5b906000526020600020016000915054906101000a900473ffffffffffffffffffffffffffffffffffffffff1681565b6060600060088054905011611bf8576040517f08c379a0000000000000000000000000000000000000000000000000000000008152600401611bef90613591565b60405180910390fd5b60008060005b600880549050811015611c84576000600560088381548110611c2357611c22612fa2565b5b90600052602060002001604051611c3a919061352e565b908152602001604051809103902054905083811115611c5f5780935060019250611c76565b838103611c75578280611c71906135b1565b9350505b5b508080600101915050611bfe565b508067ffffffffffffffff811115611c9f57611c9e6123dc565b5b604051908082528060200260200182016040528015611cd257816020015b6060815260200190600190039081611cbd5790505b5092506000805b600880549050811015611e095783600560088381548110611cfd57611cfc612fa2565b5b90600052602060002001604051611d14919061352e565b90815260200160405180910390205403611dfc5760088181548110611d3c57611d3b612fa2565b5b906000526020600020018054611d5190613000565b80601f0160208091040260200160405190810160405280929190818152602001828054611d7d90613000565b8015611dca5780601f10611d9f57610100808354040283529160200191611dca565b820191906000526020600020905b815481529060010190602001808311611dad57829003601f168201915b5050505050858381518110611de257611de1612fa2565b5b60200260200101819052508180611df8906135b1565b9250505b8080600101915050611cd9565b5050505090565b600281565b6000611e1f61188d565b600154611e2c91906135f9565b905090565b60008054906101000a900473ffffffffffffffffffffffffffffffffffffffff1673ffffffffffffffffffffffffffffffffffffffff163373ffffffffffffffffffffffffffffffffffffffff1614611ebf576040517f08c379a0000000000000000000000000000000000000000000000000000000008152600401611eb690612f82565b60405180910390fd5b6000611ec961188d565b14611f09576040517f08c379a0000000000000000000000000000000000000000000000000000000008152600401611f009061369f565b60405180910390fd5b60008111611f4c576040517f08c379a0000000000000000000000000000000000000000000000000000000008152600401611f4390613731565b60405180910390fd5b8060018190555050565b6000611f60611bae565b90506001815103611fdd576000600360006101000a81548160ff0219169083151502179055507f3230e72ef07adc105de93ad791b887e1aff8d7d710b98494ad2b0d8d25e4a56c81600081518110611fbb57611fba612fa2565b5b6020026020010151604051611fd09190612940565b60405180910390a1611fe7565b611fe681611fea565b5b50565b60005b600880549050811015612095576005600882815481106120105761200f612fa2565b5b90600052602060002001604051612027919061352e565b9081526020016040518091039020546006600060025481526020019081526020016000206008838154811061205f5761205e612fa2565b5b90600052602060002001604051612076919061352e565b9081526020016040518091039020819055508080600101915050611fed565b5060086007600060025481526020019081526020016000209080546120bb9291906122cf565b50600260008154809291906120cf906135b1565b919050555060005b6008805490508110156121865760006009600883815481106120fc576120fb612fa2565b5b90600052602060002001604051612113919061352e565b908152602001604051809103902060006101000a81548160ff02191690831515021790555060006005600883815481106121505761214f612fa2565b5b90600052602060002001604051612167919061352e565b90815260200160405180910390208190555080806001019150506120d7565b5060086000612195919061228d565b60005b815181101561224e5760088282815181106121b6576121b5612fa2565b5b60200260200101519080600181540180825580915050600190039060005260206000200160009091909190915090816121ef91906133d9565b506001600983838151811061220757612206612fa2565b5b602002602001015160405161221c9190612d22565b908152602001604051809103902060006101000a81548160ff0219169083151502179055508080600101915050612198565b507fe9ff3c4c9036a2464173c2900796a2577ef8612c539f87e004e0f5f755b1b1f460025482604051612282929190613751565b60405180910390a150565b50805460008255906000526020600020908101906122ab919061232c565b50565b50805460008255906000526020600020908101906122cc9190612350565b50565b82805482825590600052602060002090810192821561231b5760005260206000209182015b8281111561231a578282908161230a9190613797565b50916001019190600101906122f4565b5b509050612328919061232c565b5090565b5b8082111561234c5760008181612343919061236d565b5060010161232d565b5090565b5b80821115612369576000816000905550600101612351565b5090565b50805461237990613000565b6000825580601f1061238b57506123aa565b601f0160209004906000526020600020908101906123a99190612350565b5b50565b6000604051905090565b600080fd5b600080fd5b600080fd5b600080fd5b6000601f19601f8301169050919050565b7f4e487b7100000000000000000000000000000000000000000000000000000000600052604160045260246000fd5b612414826123cb565b810181811067ffffffffffffffff82111715612433576124326123dc565b5b80604052505050565b60006124466123ad565b9050612452828261240b565b919050565b600067ffffffffffffffff821115612472576124716123dc565b5b61247b826123cb565b9050602081019050919050565b82818337600083830152505050565b60006124aa6124a584612457565b61243c565b9050828152602081018484840111156124c6576124c56123c6565b5b6124d1848285612488565b509392505050565b600082601f8301126124ee576124ed6123c1565b5b81356124fe848260208601612497565b91505092915050565b60006020828403121561251d5761251c6123b7565b5b600082013567ffffffffffffffff81111561253b5761253a6123bc565b5b612547848285016124d9565b91505092915050565b600073ffffffffffffffffffffffffffffffffffffffff82169050919050565b600061257b82612550565b9050919050565b61258b81612570565b811461259657600080fd5b50565b6000813590506125a881612582565b92915050565b6000602082840312156125c4576125c36123b7565b5b60006125d284828501612599565b91505092915050565b60008115159050919050565b6125f0816125db565b82525050565b600060208201905061260b60008301846125e7565b92915050565b6000819050919050565b61262481612611565b82525050565b600060208201905061263f600083018461261b565b92915050565b600081519050919050565b600082825260208201905092915050565b6000819050602082019050919050565b600081519050919050565b600082825260208201905092915050565b60005b838110156126ab578082015181840152602081019050612690565b60008484015250505050565b60006126c282612671565b6126cc818561267c565b93506126dc81856020860161268d565b6126e5816123cb565b840191505092915050565b60006126fc83836126b7565b905092915050565b6000602082019050919050565b600061271c82612645565b6127268185612650565b93508360208202850161273885612661565b8060005b85811015612774578484038952815161275585826126f0565b945061276083612704565b925060208a0199505060018101905061273c565b50829750879550505050505092915050565b600060208201905081810360008301526127a08184612711565b905092915050565b6127b181612611565b81146127bc57600080fd5b50565b6000813590506127ce816127a8565b92915050565b6000602082840312156127ea576127e96123b7565b5b60006127f8848285016127bf565b91505092915050565b600081519050919050565b600082825260208201905092915050565b6000819050602082019050919050565b61283681612611565b82525050565b6000612848838361282d565b60208301905092915050565b6000602082019050919050565b600061286c82612801565b612876818561280c565b93506128818361281d565b8060005b838110156128b2578151612899888261283c565b97506128a483612854565b925050600181019050612885565b5085935050505092915050565b600060408201905081810360008301526128d98185612711565b905081810360208301526128ed8184612861565b90509392505050565b600082825260208201905092915050565b600061291282612671565b61291c81856128f6565b935061292c81856020860161268d565b612935816123cb565b840191505092915050565b6000602082019050818103600083015261295a8184612907565b905092915050565b600081519050919050565b600082825260208201905092915050565b6000819050602082019050919050565b61299781612570565b82525050565b60006129a9838361298e565b60208301905092915050565b6000602082019050919050565b60006129cd82612962565b6129d7818561296d565b93506129e28361297e565b8060005b83811015612a135781516129fa888261299d565b9750612a05836129b5565b9250506001810190506129e6565b5085935050505092915050565b60006020820190508181036000830152612a3a81846129c2565b905092915050565b600060c082019050612a57600083018961261b565b612a64602083018861261b565b612a71604083018761261b565b612a7e606083018661261b565b612a8b60808301856125e7565b612a9860a08301846125e7565b979650505050505050565b612aac81612570565b82525050565b6000602082019050612ac76000830184612aa3565b92915050565b60008060408385031215612ae457612ae36123b7565b5b6000612af2858286016127bf565b925050602083013567ffffffffffffffff811115612b1357612b126123bc565b5b612b1f858286016124d9565b9150509250929050565b60008060408385031215612b4057612b3f6123b7565b5b6000612b4e858286016127bf565b9250506020612b5f858286016127bf565b9150509250929050565b600067ffffffffffffffff821115612b8457612b836123dc565b5b602082029050602081019050919050565b600080fd5b6000612bad612ba884612b69565b61243c565b90508083825260208201905060208402830185811115612bd057612bcf612b95565b5b835b81811015612bf95780612be58882612599565b845260208401935050602081019050612bd2565b5050509392505050565b600082601f830112612c1857612c176123c1565b5b8135612c28848260208601612b9a565b91505092915050565b600060208284031215612c4757612c466123b7565b5b600082013567ffffffffffffffff811115612c6557612c646123bc565b5b612c7184828501612c03565b91505092915050565b7f596f75206861766520616c726561647920766f74656400000000000000000000600082015250565b6000612cb06016836128f6565b9150612cbb82612c7a565b602082019050919050565b60006020820190508181036000830152612cdf81612ca3565b9050919050565b600081905092915050565b6000612cfc82612671565b612d068185612ce6565b9350612d1681856020860161268d565b80840191505092915050565b6000612d2e8284612cf1565b915081905092915050565b7f43616e64696461746520646f6573206e6f742065786973740000000000000000600082015250565b6000612d6f6018836128f6565b9150612d7a82612d39565b602082019050919050565b60006020820190508181036000830152612d9e81612d62565b9050919050565b7f4e6f2063616e6469646174657320617661696c61626c65207965740000000000600082015250565b6000612ddb601b836128f6565b9150612de682612da5565b602082019050919050565b60006020820190508181036000830152612e0a81612dce565b9050919050565b7f566f74696e67206c696d69742072656163686564000000000000000000000000600082015250565b6000612e476014836128f6565b9150612e5282612e11565b602082019050919050565b60006020820190508181036000830152612e7681612e3a565b9050919050565b7f4e487b7100000000000000000000000000000000000000000000000000000000600052601160045260246000fd5b6000612eb782612611565b9150612ec283612611565b9250828201905080821115612eda57612ed9612e7d565b5b92915050565b60006040820190508181036000830152612efa8185612907565b9050612f09602083018461261b565b9392505050565b7f4f6e6c79206f776e65722063616e20706572666f726d2074686973206163746960008201527f6f6e000000000000000000000000000000000000000000000000000000000000602082015250565b6000612f6c6022836128f6565b9150612f7782612f10565b604082019050919050565b60006020820190508181036000830152612f9b81612f5f565b9050919050565b7f4e487b7100000000000000000000000000000000000000000000000000000000600052603260045260246000fd5b7f4e487b7100000000000000000000000000000000000000000000000000000000600052602260045260246000fd5b6000600282049050600182168061301857607f821691505b60208210810361302b5761302a612fd1565b5b50919050565b7f4d6178696d756d206e756d626572206f662063616e646964617465732072656160008201527f6368656420283229000000000000000000000000000000000000000000000000602082015250565b600061308d6028836128f6565b915061309882613031565b604082019050919050565b600060208201905081810360008301526130bc81613080565b9050919050565b7f43616e646964617465206e616d652063616e6e6f7420626520656d7074790000600082015250565b60006130f9601e836128f6565b9150613104826130c3565b602082019050919050565b60006020820190508181036000830152613128816130ec565b9050919050565b7f43616e64696461746520616c7265616479206578697374730000000000000000600082015250565b60006131656018836128f6565b91506131708261312f565b602082019050919050565b6000602082019050818103600083015261319481613158565b9050919050565b7f43616e6e6f74206164642063616e64696461746573206166746572207468652060008201527f666972737420726f756e64206861732073746172746564000000000000000000602082015250565b60006131f76037836128f6565b91506132028261319b565b604082019050919050565b60006020820190508181036000830152613226816131ea565b9050919050565b60008190508160005260206000209050919050565b60006020601f8301049050919050565b600082821b905092915050565b60006008830261328f7fffffffffffffffffffffffffffffffffffffffffffffffffffffffffffffffff82613252565b6132998683613252565b95508019841693508086168417925050509392505050565b6000819050919050565b60006132d66132d16132cc84612611565b6132b1565b612611565b9050919050565b6000819050919050565b6132f0836132bb565b6133046132fc826132dd565b84845461325f565b825550505050565b600090565b61331961330c565b6133248184846132e7565b505050565b5b818110156133485761333d600082613311565b60018101905061332a565b5050565b601f82111561338d5761335e8161322d565b61336784613242565b81016020851015613376578190505b61338a61338285613242565b830182613329565b50505b505050565b600082821c905092915050565b60006133b060001984600802613392565b1980831691505092915050565b60006133c9838361339f565b9150826002028217905092915050565b6133e282612671565b67ffffffffffffffff8111156133fb576133fa6123dc565b5b6134058254613000565b61341082828561334c565b600060209050601f8311600181146134435760008415613431578287015190505b61343b85826133bd565b8655506134a3565b601f1984166134518661322d565b60005b8281101561347957848901518255600182019150602085019450602081019050613454565b868310156134965784890151613492601f89168261339f565b8355505b6001600288020188555050505b505050505050565b600081546134b881613000565b6134c28186612ce6565b945060018216600081146134dd57600181146134f257613525565b60ff1983168652811515820286019350613525565b6134fb8561322d565b60005b8381101561351d578154818901526001820191506020810190506134fe565b838801955050505b50505092915050565b600061353a82846134ab565b915081905092915050565b7f4e6f2063616e6469646174657320617661696c61626c65000000000000000000600082015250565b600061357b6017836128f6565b915061358682613545565b602082019050919050565b600060208201905081810360008301526135aa8161356e565b9050919050565b60006135bc82612611565b91507fffffffffffffffffffffffffffffffffffffffffffffffffffffffffffffffff82036135ee576135ed612e7d565b5b600182019050919050565b600061360482612611565b915061360f83612611565b925082820390508181111561362757613626612e7d565b5b92915050565b7f43616e6e6f74206368616e6765206d617820766f74657273206166746572207660008201527f6f74696e67207374617274656400000000000000000000000000000000000000602082015250565b6000613689602d836128f6565b91506136948261362d565b604082019050919050565b600060208201905081810360008301526136b88161367c565b9050919050565b7f4d617820766f74657273206d7573742062652067726561746572207468616e2060008201527f3000000000000000000000000000000000000000000000000000000000000000602082015250565b600061371b6021836128f6565b9150613726826136bf565b604082019050919050565b6000602082019050818103600083015261374a8161370e565b9050919050565b6000604082019050613766600083018561261b565b81810360208301526137788184612711565b90509392505050565b60008154905061379081613000565b9050919050565b8181036137a557505061387d565b6137ae82613781565b67ffffffffffffffff8111156137c7576137c66123dc565b5b6137d18254613000565b6137dc82828561334c565b6000601f83116001811461380b57600084156137f9578287015490505b61380385826133bd565b865550613876565b601f1984166138198761322d565b96506138248661322d565b60005b8281101561384c57848901548255600182019150600185019450602081019050613827565b868310156138695784890154613865601f89168261339f565b8355505b6001600288020188555050505b5050505050505b56fea2646970667358221220dcca4c171ed0af032dfb745ba4bca8a21ce8f8c8b64691a243f643d3e0beb04f64736f6c634300081c0033",
  "linkReferences": {},
  "deployedLinkReferences": {}
}